:020000041000EA
:1000000000B5324B212058609868022188439860DF
:10001000D860186158612E4B002199600221596106
:100020000121F02299502B49196001219960352056
:1000300000F044F80222904214D00621196600F024
:1000400034F8196E01211966002018661A6600F04E
:100050002CF8196E196E196E052000F02FF8012189
:100060000842F9D1002199601B49196000215960AB
:100070001A491B48016001219960EB211966A021F2
:10008000196600F012F800219960164914480160C1
:100090000121996001BC002800D000471248134993
:1000A000086003C880F30888084703B5996A0420EC
:1000B0000142FBD001200142F8D103BD02B5186610
:1000C0001866FFF7F2FF186E186E02BD00000240BE
:1000D000000000180000070000035F00212200005C
:1000E000F4000018222000A00001001008ED00E03C
:1000F00000000000000000000000000074B24E7A12
:1001000000200420F7010010C3010010C5010010F9
:10011000C1010010C1010010C1010010C101001097
:10012000C1010010C1010010C1010010C701001081
:10013000C1010010C1010010C9010010CB01001065
:10014000CD010010CD010010CD010010CD01001037
:10015000CD010010CD010010CD010010CD01001027
:10016000CD010010CD010010CD010010CD01001017
:10017000CD010010CD010010CD010010CD01001007
:10018000CD010010CD010010CD010010CD010010F7
:10019000CD010010CD010010CD010010CD010010E7
:1001A000CD010010CD010010CD010010CD010010D7
:1001B000CD010010CD010010CD010010CD010010C7
:1001C00000BE00BE00BE00BE00BE00BEEFF3058054
:1001D000103800BEF2EB8871442300106823001031
:1001E0003402001090A31AE700201F49086006C8D7
:1001F00081F3088810471D48006800282FD10DA4FE
:100200000ECC002902D000F012F8F9E71849194A7B
:10021000002000E001C19142FCD1174988471749ED
:1002200088471749884700BEFDE701C901C29A42C5
:10023000FBD3704768230010C0000020A00C0020F2
:10024000482F00100000042000000420482F001058
:10025000001004200010042000000000704709482E
:1002600001F0AEFB0047000008ED00E0000000D008
:10027000A00C0020B41700203D180010DD02001073
:100280002D1900105756000006005250ABB36053B2
:100290007422001006005250861C030284220010B3
:1002A000060052505422A29D902200100500525088
:1002B000DE65F468482F0010F8B5C046044B10B551
:1002C000002B03D00349044800E000BF10BDC04626
:1002D000000000006C1700201822001010B501F07B
:1002E00089FEFEE7024B18688007C00F7047C046C2
:1002F00000C0064070B5EFF3108C72B60D4D2B6840
:10030000002BFCD0BFF35F8F0724CB08C618C05C5E
:1003100001230C40A3401C000440034207D11843B2
:100320003070BFF35F8F2C608CF3108870BD1000AD
:1003300001F000FB2C0100D00021044B044ABFF364
:100340005F8F02C39342FAD17047C046000100D0CC
:10035000800100D0044A1078431CDBB2172B00D96F
:10036000102313707047C046C00B00200123834048
:10037000002904D0034A1360034A13607047034AFC
:100380001360FBE780E200E000E100E080E100E0D4
:10039000024B10309B688000C058704700ED00E0B1
:1003A00070B50D00EFF3108672B60F4A1368002B7C
:1003B000FCD0BFF35F8F0D4B10309B6884001B593E
:1003C0000B4A934203D09D4201D001F0CBFA074B78
:1003D0009B681D51BFF35F8FBFF35F8F0022024BFD
:1003E0001A6086F3108870BD240100D000ED00E093
:1003F000CD010010F0B54E464546DE465746E0B505
:1004000083B0060000919046EFF3108B72B6654AF8
:100410001368002BFCD0BFF35F8F0025624B5D5744
:100420009A46002D00DA79E052466B005F4C5F1966
:10043000BF000193E31999469B79103613705C4B0A
:10044000B6009B6899590B1B2F2B33D9594B9942F6
:1004500000D07CE0019B02379C46574B6544AD00C1
:100460006353564BE719043BDB1B554A1B055B0DD9
:10047000651913436B80534B0121AB80FF23AB7194
:100480004346EB71009BAB604B460B431900484B56
:100490009B689951BFF35F8FBFF35F8F0022414B81
:1004A0001A608BF3108803B0F0BCBB46B246A94675
:1004B000A046F0BD01200A008243D379434549D9C3
:1004C000BC464746884607E05800C0188000201800
:1004D000C179B94228D902000623D356002BF3DA9A
:1004E0009A46131D9C464146B846374F48466346D8
:1004F0000438C01A0005324B400D1843019B908010
:1005000095715A1953469200A418A37143462F4A75
:10051000E371009B2260A780A360B8E701F022FA94
:10052000002553465D577FE79A464146131DB8465E
:1005300067469C469088043740050015E7196044DB
:10054000C01BE0270005400D3F020743CEE701F046
:1005500009FA7FE713001E491B1B5B415943090D34
:10056000154BBD1CE353154B6519043B5B1B1B0569
:10057000134D5B0D2B43AC464D466B8065460437EF
:10058000131FE719DB1B1B055B0D1D434B469971C0
:100590004146D97100999D80996049460B4B0143B2
:1005A000136074E7240100D0AF170020C40B0020B3
:1005B00000ED00E0CD01001000A1FFFFF40B0020D2
:1005C00000E0FFFF01BDFFFF01BD000001488047C3
:1005D000AAAA0000F0B5DE4657464E464546E0B5AD
:1005E0000C0083B0EFF3108872B65D4A1368002BDD
:1005F000FCD0BFF35F8F5B4B5B499A6803001033FD
:100600009F00D5598D4239D0A5424AD0574EAA1BDA
:100610002F2A33D801229246824091464846544AB6
:100620001268104001904846524A1060BFF35F8F35
:10063000EFF305829346002A35D0934201D001F0B2
:1006400091F92A0053469A439068844208D175E094
:100650004B005B189B00F3189868A04234D01A0036
:10066000062151560029F3DA844253D0019B002B16
:1006700026D04A46404B1A603D4B1A60394B9B6866
:10068000DD51BFF35F8FBFF35F8F0022344B1A60E1
:1006900088F3108803B0F0BCBB46B246A946A0461A
:1006A000F0BD0D00EAE72A0053469A439068844261
:1006B000D6D1062010561300002809DA0D0031E0CB
:1006C0004A462C4B1A60D9E706201856002822DB30
:1006D00042001118890074188A46A1689960E1796E
:1006E000D971062161569971002925DBA488F11A78
:1006F0006405241554440919E0240905490D240210
:100700002143998013181D4A9B001178F3189971A1
:100710001070ABE713005946002914D1FF319171D5
:100720001749918015490A789A71164A9B1B5B41BB
:100730005A43120D0A7099E71349E2E70620105652
:1007400013000028C4DA114A1149D21A083A50029B
:10075000400D014399800F4952080A43DA8085E72A
:10076000240100D000ED00E0CD010010C40B0020FA
:1007700000E100E080E100E080E200E0AF1700204F
:1007800001BDFFFFAAAA000001BD0000FE0B002072
:1007900000F0FFFF00F8FFFF70B5EFF305810124C3
:1007A0000443EFF3108C72B6214A1368002BFCD07F
:1007B000BFF35F8F1F4B05001F4AED1A6D416A435F
:1007C000120D1E4D8900AE6852B27658A6421CD05A
:1007D0000621595691421CD012215956914222D0DD
:1007E0001E215956914220D02A2159560324914264
:1007F00010D0134B19781A708171BFF35F8F0022EC
:100800000B4B1A608CF3108870BDAB680D4C5C50BC
:10081000EFE700246100091989005B18FF21997135
:1008200009499980E5E70124F4E70224F2E7C0468C
:10083000240100D0C40B0020AAAA000000ED00E0B3
:10084000AF170020CD01001001BDFFFF054B064A88
:100850001360064A136053609360D3601361536161
:10086000936170478080808000E400E004E400E051
:10087000024B9C466144890001607047400000348F
:1008800010B50400FFF766FD01002000FFF7F0FF40
:10089000FF232371BFF35F8F10BDC04610B5040066
:1008A000FFF758FD01002000FFF7E2FFFF23A380C0
:1008B000BFF35F8F10BDC04683680B4810B58446F8
:1008C000614462441201090159189B185C684A6826
:1008D0000120944201D802D00020C0B210BD1A6895
:1008E0000B689A42F9D8F7E7FFFFFF0F0A4B196828
:1008F000EFF3108072B60A68002AFCD0BFF35F8F56
:100900001B68BFF35F8F00221A6080F3108840BF1E
:10091000002000217047C04698170020F8B55746C0
:1009200045464E46DE46E0B598460CAB1C780DAB0E
:100930001B78070091469A460568002C5AD1AC7B7B
:10094000002C3BD0660029683619033E89194B7884
:10095000AB73002B00D1EB7300238B704B700B70CB
:100960002B4BE218BB6812019B184A461A6042469C
:100970005A600A9A9A600B9ADA6000238B704B7067
:100980000B706B7B9B46002B27D022006B6859466F
:10099000A86898475B465B005B442A68033B0028D5
:1009A00012D058469619B070D118D35C002B00D0E5
:1009B00073705B460C706B735C450FD0F0BCBB462C
:1009C000B246A946A046F8BDD3189C709119925D15
:1009D000002A00D05A705B460B706C734A4643463F
:1009E000387D00F007FB051E0AD10E9B002BE5D0D9
:1009F0001D70E3E7660029683619033E8919AFE7E1
:100A00005346002BF1D12100386800F011FDECE7CE
:100A1000FFFFFF0FF0B5DE4657464E464546002322
:100A2000E0B58BB00893674B8200D45800239B46F7
:100A3000099000F08FFA02000B006068EFF3108A53
:100A400072B6564601680029FCD0B246BFF35F8FEC
:100A500021684F7B8C46002F2ED0A5685A49A946A5
:100A600079180901894449460868496805000E005B
:100A7000AD1A9E41002E5FDD02000B00099800F0C8
:100A8000B9FA002300229946002306920793002317
:100A900098466368BFF35F8F5A461A608AF31088DE
:100AA0004346002B12D10028C3D10BB0F0BCBB468B
:100AB000B246A946A046F0BD002300229946002375
:100AC00006920793002300209846E2E7089B4946D8
:100AD00018023843C047626805000E00EFF3108A21
:100AE00072B61368002BFCD0BFF35F8F002E40DB83
:100AF0002B00334302D02369002B55D12368D97BC7
:100B0000002905D01A68480041185218033A577056
:100B10009A7B002A00D19F73DF73E268013FD35DA7
:100B20000133D3555B4623616368BFF35F8F5A4639
:100B30001A608AF310887CE7002E01D1002D9BD12A
:100B40000021604600F0F2FB4B461A685B68069293
:100B500007934B469B6898464B46DB689946E3688B
:100B6000DB19013B1B7808931B0203432361002020
:100B70008FE72369002BC1D0069A079B8021521B67
:100B8000B34109068B4202D30122104B524200218D
:100B90000491013103914946019141462000029799
:100BA0000091FFF7BBFEBDE700F0D4F92A00330047
:100BB00012184B41802109068B42E8D30122034BD6
:100BC0005242E4E784170020FFFFFF0FFFFFFF7F83
:100BD00010B5144C6368002B04D00A211248FFF7AB
:100BE00047FE10BD2300114A1021206800F0BAFA18
:100BF000032000F0A3F9032000F06AFA03200C4957
:100C000000F0B2F9FFF7A6FB0A4B9C4603232375BD
:100C1000D0231B061B6860446375074B800060602F
:100C2000DC60DAE70C0C002098170020B9080010EF
:100C3000150A00104000003484170020F0B5574614
:100C40004E464546DE46E0B585B0019310AB1B78B5
:100C50000600039300239A46984600927268EFF3C9
:100C6000108B72B61368002BFCD0BFF35F8F356812
:100C7000AC7B002C00D16DE067002B683F19033F6F
:100C8000DB195A78AA73002A00D1EA73484AA118DE
:100C9000B2680901521800980199106051600E99CC
:100CA00091600F99D16042469A705A701A706B7BAE
:100CB0009946002B6BD022006B684946A86898477C
:100CC0004B465B004B442A68033B002856D04846FD
:100CD000D719B870D118D35C002B00D07B704B466D
:100CE0000C706B734C4553D0F3681B19013B18789B
:100CF0007368BFF35F8F42461A608BF310885346C8
:100D0000002B08D10002204305B0F0BCBB46B24620
:100D1000A946A046F0BD039B002B46D00E9B0020A9
:100D20000F99984703000B433FD004000D1E1ADAB9
:100D3000009A019B121BAB41009201938022120684
:100D4000934204D301231B4C5B4200930194039B09
:100D50009A4683E77368BFF35F8F1C608BF310883C
:100D600001204042D0E700F0F5F8802200196941E7
:100D70001206009001919142E9D3E3E7D3189C70E9
:100D8000D119D25D002A00D05A704B460B706C739B
:100D9000307D009A019B00F02DF982460028A3D0F7
:100DA0002100306800F044FB9EE70020ACE7C0461D
:100DB000FFFFFF0FFFFFFF7FF8B50B000400416846
:100DC000EFF3108572B60A68002AFCD0BFF35F8F7C
:100DD000FF222068D9B2467B1A408E4207D00668AF
:100DE0005700BF18F619033EB678002E10D0E668FB
:100DF0001B0AB218013A1278DBB29A420DD00020D9
:100E00006368BFF35F8F00221A6085F31088F8BD16
:100E100022699A42F3D12661F1E700F009FBEFE77E
:100E200070B5EFF3058305000C0084B0002B0FD0E4
:100E3000104A0020536AA34203D3926A0130AA42A7
:100E400001D304B070BD1B1B5A1E9341D8B2F8E702
:100E5000094E02930193094B0200009330000B00EE
:100E6000FFF7ECFE011EE3DD20BF3000FFF7A4FF1B
:100E7000DEE7C046004005400C0C0020ED080010E5
:100E8000F0B5EFF30582D6464F4646461000C0B592
:100E90001038EFF3108872B6214C2368002BFCD079
:100EA000BFF35F8F0123190081401E4D1F0069634E
:100EB000AA461D4D29601D4D2E78AC463500C54013
:100EC0002F402B4215D053465F6A194B8500EB58D3
:100ED0009F4218D36246174B8E43EB581670BFF3F0
:100EE0005F8F0022226088F31088002B06D098477D
:100EF00004E0BFF35F8F276088F31088E0BCBA4638
:100F0000B146A846F0BD0C4B92009C466244136863
:100F10001360BFF35F8F0023236088F31088EDE731
:100F2000280100D0004005403C700540B01700206B
:100F30009C17002008130020D03F054010B5034B3C
:100F400001001800024AFFF7D5F910BDAE170020C6
:100F500018220010034B596A0A00986A596A8A429B
:100F6000FAD170470040054070B504000D00EFF362
:100F7000108672B61A4A1368002BFCD0BFF35F8F3D
:100F8000002D1BD02000FFF703FA164981420AD03A
:100F90002000FFF705FA01212000FFF7E7F9012300
:100FA000A340114A1360114BA400E550BFF35F8FBB
:100FB00000220B4B1A6086F3108870BD0121A140FE
:100FC0000A4BA200D5500A4B20001A788A430549E3
:100FD0001A70FFF7FFFA00212000FFF7C7F9E5E7D5
:100FE000280100D0810E0010386005400813002051
:100FF000B0170020F0B54F46D6464646C0B50700AC
:101000002E4C616A0D00A66A616AA942FAD18B4230
:1010100008D805D00120E0BCBA46B146A846F0BDCC
:10102000B242F7D9EFF3108A72B625480168002959
:10103000FCD0BFF35F8F0125BD4022491F4C88467D
:10104000097889462943C9B28C46414660460870F2
:10105000391D890065630A511B49B8004350216A54
:101060000020294219D0616A0800A66A616A81429B
:10107000FAD18B4219D801D1B24216D8CC450BD047
:101080000E4B1F221D625D6301233A4093400F4ABD
:10109000136043464A461A700120BFF35F8F002257
:1010A000074B1A608AF31088B5E70020BFF35F8F03
:1010B0000022034B1A608AF31088ACE70040054019
:1010C000280100D0B01700209C17002080E200E02B
:1010D000EFF3108C72B60A490B68002BFCD0BFF3FB
:1010E0005F8F01238340074A0748136202789A43BF
:1010F0000270BFF35F8F00230B608CF31088704782
:10110000280100D000400540B017002070B506004F
:101110000D00140000291DD0002A12D073688068C9
:10112000984762006B0012195B193168033A033B60
:10113000002808D08A189570C818CB5C002B0BD1FA
:101140000470280070BDCB189C7088188A5C002A37
:1011500005D105702000F5E753700470F1E75A706F
:101160000570F7E710B583600023CCB243730133F9
:10117000426004738373C4730068421C012C05D958
:101180000133DBB2137003329C42F9D1FF230B40D1
:101190005A00D318C01800230338437010BDC0464E
:1011A00070B505000C1E07D0630001681B19033BD6
:1011B000CB185A78002A01D1200070BD5000801849
:1011C0000338091800204E78487021005870280014
:1011D000FFF79CFF310004002800FFF7E1FF060045
:1011E000002C20D00028E7D0320021006B68A868CE
:1011F00098477200630092191B192968033A033B50
:10120000002808D08A189470C818CB5C002B00D036
:1012100053700670D0E7CB189E7088188A5C002A3D
:1012200000D05A7004703400C6E7C046F0B5574687
:101230004546DE464E46E0B50D006F0001687F1959
:10124000033F0400C85D83B00192CA19002850D042
:1012500043001B18033BCB185E78B446002E1AD10E
:10126000019E002E42D0E67B002E04D073009B1915
:10127000CB18033B5D70A37B002B00D1A573E573F6
:1012800000282FD10023537003B0F0BCBB46B246F8
:10129000A946A046F0BD72006244033A8A1851780C
:1012A00088460021517089465970320001002000A3
:1012B000FFF72CFF43468246002B07D05B002168D6
:1012C0004344033BCB185A78002A16D14246514674
:1012D0002000FFF71BFF2168019BCA19002BC2D118
:1012E0000028CFD043001B18033BCB180021997076
:1012F000C8E7019B002BB6D1C4E750008018033823
:10130000091848788346484648705870414620007E
:10131000FFF7FCFE594680462000FFF741FF41469B
:1013200002002000FFF7F2FE8046CFE7F0B55746F7
:101330004546DE464E46E0B583B00191457B04004C
:101340006F0000687F19033FC15DC219002952D0A8
:101350004B005B18033BC3185E78B446002E1CD1CB
:10136000019E002E44D0E67B002E04D073009B1912
:10137000C318033B5D70A37B002B00D1A573E573FD
:10138000002931D1002328005370617303B0F0BCF1
:10139000BB46B246A946A046F0BD72006244033A7D
:1013A0008218507880460020507081465870320074
:1013B0002000FFF7ABFE43468246002B07D05B00C0
:1013C00021684344033BCB185A78002A17D1424680
:1013D00051462000FFF79AFE019B01002068C219C8
:1013E000002BC0D10029CDD04B005B18033BC318A4
:1013F00000209870C6E7019B002BB4D1C2E75000D3
:101400008018033809184878834648464870587051
:1014100041462000FFF77AFE594680462000FFF73C
:10142000BFFE414602002000FFF770FE8046CEE777
:1014300070B5050000292CD0437B8B422ED04C0088
:1014400000686418033C0419A278002A21D05300D4
:101450009B18033BC25CC6188A4202D11BE0002ADB
:1014600008D053009B18033BC3185A788A42F6D120
:1014700062785A70002301222800A3706370FFF77E
:10148000D5FE697B02002800FFF740FE687301204B
:1014900000E0002070BD63783370EBE70122190093
:1014A000FFF7C4FEF2E7C04610B50C2082B000F092
:1014B000A9F9FEF717FF002810D0864B8648864909
:1014C000864A186059609860D960186159619861BE
:1014D000D961186259625A6202B010BD804CA0678F
:1014E00000F098F901227F4B1A60636C012BFCD14C
:1014F00003227D4B1A607A4A936B012BFCD1013396
:1015000001217A4A7A480093043300F027F9052331
:10151000784A00930121784800F020F9774B5A6807
:10152000FF2A02D8802252005A6080226E4B694CFA
:1015300012011A602169002905D0606900F072FA71
:1015400001300138FDD1E0226C4B6D4819680A402A
:10155000026002221968514001320A4004210260EF
:101560009A681142FCD08021664A090111608022EC
:1015700052005A60644B2361644B5968FF2900D8BC
:101580005A6003220121574B1A60604A936819423E
:10159000FCD0E023106803405D4803601268032319
:1015A0004A4002211340594A036093681942FCD013
:1015B0008021584B090119608021574B4900516027
:1015C0006361564B5A68FF2A00D859608022544BF9
:1015D00012011A60E169002905D0606900F022FA61
:1015E00001300138FDD1E0234C4A11680B404D49D0
:1015F0000B6080214C4B090119608021364B49005A
:101600005160E361494B5A68FF2A00D85960802233
:10161000474B12011A60216A002905D0606900F069
:1016200001FA01300138FDD1E023404A11680B4036
:1016300040490B608021404B0901196080235B0009
:1016400053608022244BD20223623C4B5968914262
:1016500000D25A6080223A4B12011A60616A002956
:1016600005D0606900F0DEF901300138FDD1E023DA
:10167000324A11680B4033490B608021324B09011B
:1016800019608023DB025360144B63622F4B5A684E
:10169000FF2A02D8802252005A6080222C4B12016D
:1016A0001A60A169002905D0606900F0BBF901301A
:1016B0000138FDD1E023254A11680B4025490B6014
:1016C0008021254B0901196080235B005360124B78
:1016D000A36101E7A00C0020006CDC021BB7000036
:1016E000008000403CB0004030B00040002F6859FE
:1016F00000800240008C864700C0024030800040DD
:101700003090004030A00040001BB7003C800040FB
:101710003C9000403CA0004040597307548000407A
:1017200054B000405490004054A0004060800040FD
:1017300060B000406090004060A000406C800040BD
:101740006CB000406C9000406CA0004048800040AD
:1017500048B000404890004048A00040F8B5040060
:101760000C2017001D000E0000F05CF943011B1A4D
:101770009901C91AC90009188901380000F052F905
:10178000069B29041B0319432368002B20DB194BFC
:10179000194DE3185A4253418022520194461B03CB
:1017A000164A63441360164A13601F00AA689743E1
:1017B000FBD1C023221D9B01134321222660A06080
:1017C0001A602268002AFCDA0822E1601A60F8BD7B
:1017D0003F2322681340B342D9D1A3681B051B0DD8
:1017E0008342D4D1EE22E368D20213408B42CED1A1
:1017F000EDE7C0460040FDBF00C0004000E00040F3
:1018000000F000408023024A9B000343D3627047EC
:1018100000800540AA23064A1B0113602F230549B7
:10182000D360054B19605368002BFCDA7047C04643
:101830000040024000B0FA00006002402B4B2C4AEE
:1018400070B51A602B4A2C4B2C491A6014008B6817
:101850009C43FBD12A4D2B4EB54208D2013E761B4C
:10186000B60808CD984723000134B342F9D1FFF7F9
:101870001BFE254A204B1A60204A9368DB43DB019C
:10188000DD09002BF9D14022204B214E214C9A67D3
:101890005A671A67DA66B44208D22368200008340F
:1018A000002B1FD0FEF7FAFFB442F6D31A4C1B4EA2
:1018B000C022B168200000F093F9B460FEF73CFD4F
:1018C000FEF7C4FFFFF784F9154C164EB44208D258
:1018D000013E361BB60808CC98472B0001359E42C6
:1018E000F9D170BDFEF7CCFFD5E7C04600E000405F
:1018F000BFCDFBFEFE7F3C0000F0004000C000407A
:10190000880C0020980C0020FFFFFF0100F0014030
:10191000880C0020800C00200000002000ED00E07A
:10192000980C0020A00C002000BEFDE710B5FFF7CA
:10193000FBFFC0460FB400B5084883B000F0ECF9D7
:10194000049B002B07D005A91800019100F018F89E
:10195000034800F0E1F90120FFF7E6FF3C22001008
:101960004C22001010B50148FFF7E4FF5022001090
:1019700010B5002800D110BD00F082F9FBE7C04689
:1019800010B5094A0300146884B0002C08D0012265
:1019900000910648524203A9A047012004B010BD9F
:1019A00000F0BAF90020F9E764170020711900105F
:1019B00001480421014B1847400C0020E119001098
:1019C000142310B50100188804331B88984710BDF4
:1019D000162310B50100188802331B88984710BDE4
:1019E000F8B54746CE4680B50F1E19D01423994648
:1019F000043304000025012698464B4618884346C8
:101A000021681B88984701C4431E98410135404214
:101A10000640AF42F1D13000C0BCB946B046F8BD77
:101A20000126F8E7114A936F9B0813D2106651669E
:101A3000002905D0FFE7FFE7FFE7516F106F704700
:101A400004B5002801D00020C04300F0D5FB0021E0
:101A500004BDC046F0B5146E556E576F166FFFF794
:101A6000E5FF1466556657671667F0BD000000D0A5
:101A7000132370B51D78012D15D010DD1D48FFF71B
:101A8000A7FF1D4C01008022200000F0A9F8022DC4
:101A90002DD01A48FFF794FF194B186070BD194BF1
:101AA000154CA364F5E7174B134C23606360A360E8
:101AB000E36023616361A361E36123626362A36204
:101AC000E36223636363A363E36323646364A364E4
:101AD000E36423656365A365E36523666366A366C4
:101AE000E36623676367A367E367A364D1E7054BF6
:101AF000A364CEE753440000C80D00204C3300001F
:101B000094170020091B001007B5604601880A0AD7
:101B10000230DF2AFAD1C9B2820804D30288408891
:101B20000004104300E00068014A5050039007BDD4
:101B3000C80D0020132310B512481C78FFF748FF8A
:101B40000100012C0AD003DD80220F4800F048F884
:101B50000E48FFF735FF0E4B186010BD0A4C54229B
:101B6000200000F03DF80B4B6365A365E365236639
:101B70006366A366E36623676367A367E36723621D
:101B8000E361E5E753460000C80E00204C33000037
:101B900094170020991B001007B5604601880A0AB7
:101BA0000230DF2AFAD1C9B2820804D30288408801
:101BB0000004104300E00068014A5050039007BD44
:101BC000C80E002001480421014B1847500C00208A
:101BD000E1190010014B1B6818470000500C002051
:101BE000014B5B6818470000500C0020F0B5C6465A
:101BF00000B5437D07000D001600002B38D0002AE9
:101C00002EDD00216A1E90466A5C037D4C1C00207C
:101C10000A2A0CD0A64216D043461B5D21000D3B7C
:101C20005A4253416A5CDBB24C1C0A2AF2D1002BA7
:101C3000F0D1814217DC022110483B689847A64248
:101C400007D02000E8E7864203DD311A3B682818F8
:101C50009847AD19013D2B780D3B5A4253413B75D6
:101C600080BCB846F0BD091A3B6828189847E2E7DF
:101C70000368110028009847F2E7C046C022001010
:101C8000F0B5CE46474680B583B06B460600DD1DF5
:101C90002870FFF75FF900231A4A12184B41802180
:101CA00009068B4202D30122174B52421749080002
:101CB000884600F0A9FA164B81461C68002C14D007
:101CC000144F02E02469002C0FD02368002BF9D0B8
:101CD0003B68002B01D0A342F4D12000012229004F
:101CE000FFF784FF2469002CEFD14B46002B05D170
:101CF000300003B0C0BCB946B046F0BD404600F06D
:101D00006BFAF5E740420F00FFFFFF7F800C0020D9
:101D10005813002060130020F0B5DE4657464E46AB
:101D20004546E0B585B0070000F0C4F90600FFF7AE
:101D300011F900232B4A12184B41802109068B42CE
:101D400002D30122284B5242284908008B4600F05A
:101D50005BFA274B01901C689A46002C3BD0254B20
:101D6000984602ABDD1D0A23994602E02469002C47
:101D700017D02368002BF9D043461B68002B01D0F5
:101D8000A342F3D1200032003900FFF72FFF4B466A
:101D90002000012229002B70FFF728FF2469002C66
:101DA000E7D1019B002B18D153461C68002C06D0AC
:101DB0006368002B0BD098472469002CF8D13000C1
:101DC00005B0F0BCBB46B246A946A046F0BD2469AA
:101DD000002CEDD1F3E70028F1D0584600F0FCF9D3
:101DE000E2E7C04640420F00FFFFFF7F800C00206B
:101DF000581300206013002010B501210520FEF7C4
:101E0000B5FA10BD10B500210520FEF7AFFA10BDE0
:101E10008022024B5202DA647047C0460020115003
:101E2000F0B5C64600B5060000F046F80C231B4D81
:101E3000FF22AB6705201A49FEF7DCFA40239846DB
:101E4000184C402200212000FFF7C4FE4346012722
:101E5000238321210023144A6770A2601360635416
:101E60005F31618441462187053963540F4A104927
:101E70006360E260A1620B606362E26200F0B4F949
:101E800080239B052F64EB6490230A4A3000EA50BC
:101E9000FFF7BEFF80BCB846F0BDC0460000115041
:101EA000990200206413002084001050000110509B
:101EB0008000105010D0010080220D4B520410B54C
:101EC0001A600C4B0C491A6010008B689843FBD1C8
:101ED0000A4C9C2200212000FFF77CFE802200217A
:101EE00052010748FFF776FE0923636710BDC0461D
:101EF00000E0004000F0004000C000400000115031
:101F00000000105010B5064B1B78002803D01800B5
:101F1000FFF772FF10BD1800FFF774FFFAE7C04625
:101F2000780C0020F0B5C64600B5254E0500337884
:101F3000FF2B01D0012036E0532200212148FFF77A
:101F400049FE214C200000F08FF8204B043C1C601F
:101F50001F4B204F9846002B1DD0380000E000BFDB
:101F60001D4B18603B7842460024002A15D01B4ABE
:101F7000904642469C4219D3904701343B78E4B2E4
:101F8000A342F6D228003570FFF74AFF2800FFF77A
:101F900033FF012007E03B78E5E700F021F83B78CC
:101FA000002BEFD0002080BCB846F0BD0A4A630089
:101FB00012681B19DB00D318002BF3D01A68DBE77B
:101FC000780C0020F01100206C0C0020441200203E
:101FD00000000000AC17002060110020E11F00107D
:101FE00010B58C2200210248FFF7F4FD10BDC04659
:101FF0006411002010B50020FFF794FF10BDC0460B
:10200000F8B504000589828806894089ADB2B3B26B
:1020100087B2864220D3DB1B9BB29A4202D8E0797A
:10202000C00918D02B00954203D39B1A9BB2934250
:10203000FBD2E28820685204520C5343C018FFF7C9
:10204000CFFDA2886B1C9BB252009D4209D99B1AFE
:102050009BB201202381F8BD5000C01B1B189BB20E
:10206000DBE79342F5DBF2E70023438103810120A4
:102070007047C04610B5010000230022002000F088
:1020800047F810BD70B5074C074D641BA41005D070
:10209000013CA300EB589847002CF9D100F098F8C8
:1020A00070BDC046A00C0020A00C00207047C046A8
:1020B0007047C04610B583070AD00300032102E031
:1020C00001330B4205D01A78002AF9D1181A10BD35
:1020D000030019680C4A0D4C8A188A4322420FD11A
:1020E0005968094A04338A188A43224208D1596838
:1020F000054A04338A188A432242F1D000E00133B2
:102100001A78002AFBD1E1E7FFFEFEFE8080808086
:10211000F0B5D6464F4646469846244BC0B5060015
:1021200018689A460F009146FFF7C0FF204B1D68C4
:10213000002D32D053466C6818681F2C30DC002EFE
:102140000CD1631C0234A4006B606751FFF7B0FF31
:102150000020E0BCBA46B146A846F0BD49468822F8
:10216000A300EB189950C42149008C46AC44614649
:10217000873AA24009689146114362461160842162
:10218000424649005A50022EDBD129004A468D3181
:10219000FF310B6813430B60D3E7064D1D60C9E7A1
:1021A000FFF786FF01204042D3E7C0467C0C0020A9
:1021B000C80F0020CC0F0020034B10B5002B02D01D
:1021C0000248FFF757FF10BD0000000085200010F7
:1021D000F8B5C0460000000001B40248844601BCC6
:1021E000604700BF5D01002001B40248844601BC85
:1021F000604700BF8501002001B40248844601BC4D
:10220000604700BF690B002001B40248844601BC4E
:08221000604700BFC10000207F
:10221800486172647761726520616C61726D202516
:102228006420616C726561647920636C61696D65B5
:10223800640000000A2A2A2A2050414E4943202AD5
:102248002A2A0A000A000000486172642061737338
:102258006572740052656C6561736500626F6F74B6
:10226800325F77323571303830000000312E352E2C
:10227800300000007069636F000000007573625FD2
:102288006B657970616400004170722031332032CF
:102298003032330006005250D3F075425C220010F1
:1022A80006005250E182887F6422001006005250D6
:1022B800BBFF3CB67C2200100D0A0000556E686119
:1022C8006E646C65642049525120307825780A0084
:1022D80065702025642025732077617320616C72F6
:1022E8006561647920617661696C61626C65000082
:1022F80043616E277420636F6E74696E756520780C
:10230800666572206F6E20696E61637469766520F8
:102318006570202564202573000000006F75740027
:10232800696E00004C45440009005250000000024C
:0C2338002C23001008005250120000007E
:102344009C220010A822001088020010B422001061
:1023540094020010A0020010AC0200103C230010F4
:042364003023001012
:10236800F0B5C646150000B504001E000268EFF37C
:10237800108172B61368002BFCD0BFF35F8F042363
:10238800E356002B2DDB2268BFF35F8F002010601F
:1023980081F31088D0221206127852B290469A42DF
:1023A80003D1002080BCB846F0BD00270BE02368AD
:1023B800BFF35F8F1F6081F310882800310000F0A1
:1023C8003FFD0028EDD12268EFF3108172B6136843
:1023D800002BFCD0BFF35F8F23797F2BE7D94346CF
:1023E80002E0D0231B061B6823712368BFF35F8FAD
:1023F80000221A6081F310880120D3E70268EFF306
:10240800108172B61368002BFCD0BFF35F8FFF23D7
:1024180003710368BFF35F8F00221A6081F310888D
:1024280040BF70470022154B10B59A60DA601A61F8
:102438005A619A61DA611A625A629A62DA621A63B6
:102448005A639A63DA631A645A649A64DA641A6596
:102458005A659A65DA651A665A669A66DA661A6776
:102468005A679A67DA67F03292000021044800F050
:10247800EFFC044B044A1A6010BDC046000010501F
:10248800A41300206817002080011050F0B55746AB
:10249800DE464E464546E0B5244B87B09F6D002F7B
:1024A80023D0234B0024994601239846214B01262B
:1024B8009A4604E001347600E4B2202C15D03E425E
:1024C800F8D04B469E65434665086D00A343ED185A
:1024D8006D015544280000F0BBFB00280CD10134E5
:1024E800B743E4B27600002FE7D107B0F0BCBB4693
:1024F800B246A946A046F0BDAB7802A89B46EB8A37
:10250800062200210630019300F0A2FCE023594680
:1025180002AADB009380019B117203A80121059395
:1025280000F0BEFB280000F02BFBD8E7000011509C
:1025380000301150641300209823C84AF0B5D558CC
:1025480080232C009B02102685B01C401D427AD0A7
:10255800C34BC44C9A6AC44B00261A603B23E35C05
:10256800022B00D1DFE07B23E35C022B00D1B9E131
:10257800BB23E35C022B00D1A9E1FB23E35C022B24
:1025880000D199E13C23FF33E35C022B00D158E1F1
:102598007C23FF33E35C022B00D145E1BC23FF33EE
:1025A800E35C022B00D132E1FC23FF33E35C022B16
:1025B80000D11FE1AD4BE35C022B00D10EE1AC4B27
:1025C800E35C022B00D1FDE0AA4BE35C022B00D1B7
:1025D800ECE0A94BE35C022B00D1DBE0A74BE35C0A
:1025E800022B00D1CAE0A64BE35C022B00D1ABE082
:1025F800A44BE35C022B00D17FE1A34BE35C022BED
:1026080000D196E1002E08D1A04B1B78002B04D1F5
:1026180080219F4A90338902D150904B0A229C6CAA
:102628006B460021981D00F013FCC023640501AE21
:102638009B00640D3380300002940121802400F057
:102648002FFB944EA402EB0669D480235B021D4243
:1026580014D0012223211C43824B5A54DA70C02320
:102668008D4ADB00019302AB03CA03C3012101A811
:1026780000F016FB8022864B92021A6580235B01CC
:102688001D4233D18023DB011D421CD180231B0254
:102698001D4204D1AC4200D0C8E105B0F0BD1C43D6
:1026A8006B460A220021981D00F0D2FBA02301AE40
:1026B800DB0033800121300000F0F2FA8022744BF5
:1026C80012011A65E6E71C436B460A220021981D91
:1026D80000F0BEFB802301AEDB0033800121300017
:1026E80000F0DEFA10226A4B1A65CFE700221C437D
:1026F8005A4B01AE1A60FFF795FE6B460A2200217D
:10270800981D00F0A5FB80235B0033800121300079
:1027180000F0C6FA80225E4B12031A65B2E7FFF793
:10272800B5FE340091E73833E65C002E00D11AE795
:102738000233E25C002A00D115E720000022203095
:10274800E25400F04FFA0EE7544BE75C002F00D13B
:102758004EE70233E25C002A00D060E1494BE35CBB
:10276800022B00D1DBE0484BE35C022B00D054E79E
:102778004B4BE35C002B00D0E0E04EE7494BE75CB5
:10278800002F00D12FE70233E25C002A00D03EE19F
:102798003E0028E7444BE75C002F00D11EE70233D8
:1027A800E25C002A00D02AE13E0017E73F4BE75CD5
:1027B800002F00D10DE70233E25C002A00D016E1B9
:1027C8003E0006E73A4BE75C002F00D1FCE60233F7
:1027D800E25C002A00D002E13E00F5E6354BE75CFA
:1027E800002F00D1EBE60233E25C002A00D0EEE0D5
:1027F8003E00E4E6F933FF33E75C002F00D1D9E669
:102808000233E25C002A00D0D8E03E00D2E6B933B9
:10281800FF33E75C002F00D1C6E60233E25C002AF2
:1028280000D0C2E03E00BFE67933FF33E75C002FFB
:1028380000D1B3E60233E25C002A00D0ACE03E00EF
:10284800ACE63933FF33E75C002F00D1A0E6023352
:10285800E25C002A00D096E03E0099E600001150A4
:1028680000400540641300205C1300203B02000078
:102878007B020000BB020000FB0200003B030000DB
:102888007B030000BB030000FB030000AD17002022
:102898000030115010000200000010507A030000B0
:1028A800FA0300003A030000FA020000BA0200002E
:1028B8007A0200003A020000F833E75C002F00D1EA
:1028C80060E60233E25C002A55D13E005AE6B8338E
:1028D800E75C002F00D150E60233E25C002A42D1C7
:1028E8003E004AE67833E75C002F00D140E6023329
:1028F800E25C002A2FD13E003AE64F4BE35C002B06
:1029080000D17AE6EF239B00E25C002A00D12AE797
:102918000022E2541C3BE01800F064F923E7464B20
:10292800E35C002BEED1454BE35C022B00D074E650
:102938003E00434BE35C002B00D163E6FF239B0082
:10294800E25C002A00D168E60022E2541C3BE01851
:1029580000F048F961E6200000226030E2543E00B1
:1029680000F040F904E620000022A030E2543E00C6
:1029780000F038F901E620000022E030E2543E0081
:1029880000F030F9FEE5200000222130FF30E2544B
:102998003E0000F027F9FBE5200000226130FF30FF
:1029A800E2543E0000F01EF9F8E520000022A130B4
:1029B800FF30E2543E0000F015F9F5E52000002252
:1029C800E130FF30E2543E0000F00CF9F2E500225D
:1029D800E2541C3BE01800F005F93E00EFE5002248
:1029E800E2541C3BE01800F0FDF83E00ECE5002244
:1029F800E2541C3BE01800F0F5F83E00E9E500223F
:102A0800E2541C3BE01800F0EDF83E00E6E5002239
:102A1800E2541C3BE01800F0E5F83E00E3E5002234
:102A2800E2541C3BE01800F0DDF897E62100054869
:102A3800694000F0EDF9C046BA030000FB0300004E
:102A4800FA030000C4220010084A0300126C002098
:102A5800920703D49A78D209012A00D07047D87E09
:102A6800023843425841C0B2F8E7C046000011504E
:102A780010B5FFF7E9FF00280CD00749074B8C4633
:102A8800074A9B6A126863449B1A0020C6229A422E
:102A98004041C0B210BDC046E0FCFFFF0040054009
:102AA8005C130020F8B5028B838A04000F00161C03
:102AB8009A4200D91E1CE27880211500681E8541C3
:102AC800B6B2C90031436D030D4301214A409B1B37
:102AD800E27062789BB2A382002A09D0002B02D14F
:102AE8008023DB011D43002F00D02D042800F8BDF2
:102AF800E068BB01C0183200216900F099F9236928
:102B08009B19236180231B021D43A38AE6E7C04665
:102B1800836870B504001D68002900D02D0C637807
:102B2800AD05AD0D002B09D1E38AEB18E382238BA9
:102B3800AB4201D90023A382280070BDE368890154
:102B480059182A00206900F073F9E38AEB18E38228
:102B580023695B192361EAE710B504008368002143
:102B68001B68FFF7D5FF63681B685B0002D5238BE2
:102B7800834200D010BD01212000FFF7C9FFF9E70B
:102B880000238376436103617047C04610B58368AC
:102B9800002901D01C682140002A11D08024E400BB
:102BA800114322420CD01A6822420BD10A4A0A4029
:102BB8001A60FFE7FFE7FFE7FFE7FFE7FFE7836844
:102BC800196010BD81787F20CA09044B920001402A
:102BD800D258034800F01CF9FFFBFFFF600C0020EF
:102BE800D8220010436870B5002180251E680400B3
:102BF800FFF758FF134B6D011B6C05439B070FD55F
:102C0800A3785B060FD0104B1E4080239B053343EF
:102C180062680021136020002A00FFF7B7FF70BD2B
:102C2800A378DB09EFD0A38A002BECD00121200088
:102C3800FFF738FFA023054ADB053240054313435D
:102C4800E6E7C04600001150FFFFFFAFFFFFFFDFC0
:102C580070B5857E0400002D14D0FFF77DFFA38A90
:102C6800002B01D1280070BD2000FFF701FF0028CC
:102C780003D0012300252377F4E72000FFF7B2FFF4
:102C88000025EFE781787F20CA09034B92000140B5
:102C9800D258024800F0BCF8600C0020F82200105E
:102CA800F0B5C64600B5437805000E0084B0042B85
:102CB80069D04ED8022B00D17DE0032B00D074E000
:102CC8004C4F4D4A00243B78002A00D187E04B4AFC
:102CD800904603E00134E4B29C4214D8A342F9D9E7
:102CE8004146620009681219D2008A18002AF1D0F8
:102CF8005269002AEED069682878904701343B78F9
:102D0800E4B29C42EAD93E4B1A7852071DD50421F9
:102D18001A788A431A706B460A22981D002100F01F
:102D280097F86A462B78137105235371354B1C6845
:102D3800251D002E59D1236800209847280001A995
:102D480000F06EF801202368984704B080BCB846AC
:102D5800F0BD052B29D12A4B1A78D207F5D50421C5
:102D68001A788A431A70274B1C68271D002E17D122
:102D78002368002098472900380000F051F8012006
:102D880023689847E1E71E4B1A78D207DDD504215E
:102D98001A780A431A701B4B1C68271D002EE7D0AF
:102DA8002900380000F03CF8CFE7164B1C68271DB7
:102DB800002EF5D1DCE70120114A1178814311700A
:102DC80011789943002311700421537013788B43B1
:102DD80013700C4B1C68271D002EC9D0E0E7002299
:102DE8000132D2B29342FBD28DE7280001A900F04C
:102DF80017F8AAE7AC1700200000000060110020B7
:102E0800F0110020441200207047C0460000000066
:102E180001B40248844601BC604700BF3519001060
:102E280001B40248844601BC604700BF012000107D
:102E380001B40248844601BC604700BFE11B001092
:102E480001B40248844601BC604700BF210E00104F
:102E580001B40248844601BC604700BFD51B00107E
:102E68001000000000000000000001000000000049
:102E78000000000000000200000000000000000048
:102E88000000030000000000000000000000FF0038
:102E98000000000001B5486801318E4600477046C1
:102EA80009380149884701BD99070010240C002002
:102EB80000000000C80C00201813002000000000CB
:102EC800000000002813002000000000000000009F
:102ED80010000000000000000000000000000000DA
:102EE800503300004C3300005433000052330000CC
:102EF8004D5300004D43000053340000433400009C
:102F08002423001028230010051F00104812002059
:102F180010000C0000000000FF0000005C11002001
:102F28000000000000000000C51B0010B1190010CF
:102F3800711A0010351B0010B9210010BD020010D5
:04000005100001E9FD
:00000001FF
